{
  "_format": "hh-sol-artifact-1",
  "contractName": "Voting",
  "sourceName": "contracts/Voting.sol",
  "abi": [
    {
      "inputs": [],
      "stateMutability": "nonpayable",
      "type": "constructor"
    },
    {
      "anonymous": false,
      "inputs": [
        {
          "indexed": true,
          "internalType": "uint256",
          "name": "electionId",
          "type": "uint256"
        },
        {
          "indexed": false,
          "internalType": "string",
          "name": "name",
          "type": "string"
        }
      ],
      "name": "NewCandidate",
      "type": "event"
    },
    {
      "anonymous": false,
      "inputs": [
        {
          "indexed": true,
          "internalType": "uint256",
          "name": "id",
          "type": "uint256"
        },
        {
          "indexed": false,
          "internalType": "string",
          "name": "name",
          "type": "string"
        }
      ],
      "name": "NewElection",
      "type": "event"
    },
    {
      "anonymous": false,
      "inputs": [
        {
          "indexed": true,
          "internalType": "uint256",
          "name": "electionId",
          "type": "uint256"
        },
        {
          "indexed": false,
          "internalType": "string",
          "name": "candidateName",
          "type": "string"
        }
      ],
      "name": "Voted",
      "type": "event"
    },
    {
      "inputs": [],
      "name": "candidateCount",
      "outputs": [
        {
          "internalType": "uint256",
          "name": "",
          "type": "uint256"
        }
      ],
      "stateMutability": "view",
      "type": "function"
    },
    {
      "inputs": [
        {
          "internalType": "uint256",
          "name": "",
          "type": "uint256"
        }
      ],
      "name": "candidates",
      "outputs": [
        {
          "internalType": "uint256",
          "name": "id",
          "type": "uint256"
        },
        {
          "internalType": "string",
          "name": "name",
          "type": "string"
        },
        {
          "internalType": "uint256",
          "name": "voteCount",
          "type": "uint256"
        }
      ],
      "stateMutability": "view",
      "type": "function"
    },
    {
      "inputs": [
        {
          "internalType": "string",
          "name": "_name",
          "type": "string"
        }
      ],
      "name": "createElection",
      "outputs": [],
      "stateMutability": "nonpayable",
      "type": "function"
    },
    {
      "inputs": [],
      "name": "electionCount",
      "outputs": [
        {
          "internalType": "uint256",
          "name": "",
          "type": "uint256"
        }
      ],
      "stateMutability": "view",
      "type": "function"
    },
    {
      "inputs": [
        {
          "internalType": "uint256",
          "name": "",
          "type": "uint256"
        }
      ],
      "name": "elections",
      "outputs": [
        {
          "internalType": "string",
          "name": "name",
          "type": "string"
        },
        {
          "internalType": "uint256",
          "name": "totalVotes",
          "type": "uint256"
        },
        {
          "internalType": "uint256",
          "name": "totalCandidates",
          "type": "uint256"
        },
        {
          "internalType": "bool",
          "name": "isActive",
          "type": "bool"
        }
      ],
      "stateMutability": "view",
      "type": "function"
    },
    {
      "inputs": [],
      "name": "owner",
      "outputs": [
        {
          "internalType": "address",
          "name": "",
          "type": "address"
        }
      ],
      "stateMutability": "view",
      "type": "function"
    },
    {
      "inputs": [
        {
          "internalType": "uint256",
          "name": "_electionId",
          "type": "uint256"
        },
        {
          "internalType": "string",
          "name": "_candidateName",
          "type": "string"
        },
        {
          "internalType": "uint256",
          "name": "_voterAge",
          "type": "uint256"
        }
      ],
      "name": "registerCandidate",
      "outputs": [],
      "stateMutability": "nonpayable",
      "type": "function"
    },
    {
      "inputs": [
        {
          "internalType": "uint256",
          "name": "_electionId",
          "type": "uint256"
        },
        {
          "internalType": "string",
          "name": "_candidateName",
          "type": "string"
        }
      ],
      "name": "vote",
      "outputs": [],
      "stateMutability": "nonpayable",
      "type": "function"
    }
  ],
  "bytecode": "0x608060405234801561001057600080fd5b50600160008190555033600560006101000a81548173ffffffffffffffffffffffffffffffffffffffff021916908373ffffffffffffffffffffffffffffffffffffffff160217905550611452806100696000396000f3fe608060405234801561001057600080fd5b50600436106100885760003560e01c80635e6fef011161005b5780635e6fef01146101135780638da5cb5b14610146578063997d283014610164578063a9a981a31461018257610088565b806315cf4a5f1461008d57806324108475146100a957806326cf79e3146100c55780633477ee2e146100e1575b600080fd5b6100a760048036038101906100a29190610bf8565b6101a0565b005b6100c360048036038101906100be9190610c77565b6102e2565b005b6100df60048036038101906100da9190610cd3565b6105d7565b005b6100fb60048036038101906100f69190610d42565b6107f8565b60405161010a93929190610e06565b60405180910390f35b61012d60048036038101906101289190610d42565b6108aa565b60405161013d9493929190610e5f565b60405180910390f35b61014e61096f565b60405161015b9190610eec565b60405180910390f35b61016c610995565b6040516101799190610f07565b60405180910390f35b61018a61099b565b6040516101979190610f07565b60405180910390f35b600560009054906101000a900473ffffffffffffffffffffffffffffffffffffffff1673ffffffffffffffffffffffffffffffffffffffff163373ffffffffffffffffffffffffffffffffffffffff1614610230576040517f08c379a000000000000000000000000000000000000000000000000000000000815260040161022790610f94565b60405180910390fd5b6004600081548092919061024390610fe3565b91905055508060016000600454815260200190815260200160002060000190805190602001906102749291906109fb565b506001806000600454815260200190815260200160002060050160006101000a81548160ff0219169083151502179055506004547f5e2f426436d5ff25b3f91d52e030c4947c82f5d85a4ba18e442c0d3ea429e7ff826040516102d7919061102c565b60405180910390a250565b6102ea6109a1565b60045482111561032f576040517f08c379a00000000000000000000000000000000000000000000000000000000081526004016103269061109a565b60405180910390fd5b6001600083815260200190815260200160002060050160009054906101000a900460ff16610392576040517f08c379a000000000000000000000000000000000000000000000000000000000815260040161038990611106565b60405180910390fd5b60016000838152602001908152602001600020600201816040516103b69190611162565b908152602001604051809103902060009054906101000a900460ff16610411576040517f08c379a0000000000000000000000000000000000000000000000000000000008152600401610408906111c5565b60405180910390fd5b6001600083815260200190815260200160002060010160003373ffffffffffffffffffffffffffffffffffffffff1673ffffffffffffffffffffffffffffffffffffffff16815260200190815260200160002060009054906101000a900460ff16156104b2576040517f08c379a00000000000000000000000000000000000000000000000000000000081526004016104a990611231565b60405180910390fd5b6001600083815260200190815260200160002060030160008154809291906104d990610fe3565b91905055506001806000848152602001908152602001600020600201826040516105039190611162565b908152602001604051809103902060006101000a81548160ff021916908315150217905550600180600084815260200190815260200160002060010160003373ffffffffffffffffffffffffffffffffffffffff1673ffffffffffffffffffffffffffffffffffffffff16815260200190815260200160002060006101000a81548160ff021916908315150217905550817fb0fa784f6c9ce4625e023c4cb4b392b871163af5c58729e7a7b8f7cdaff54f17826040516105c3919061102c565b60405180910390a26105d36109f1565b5050565b80601281101561061c576040517f08c379a0000000000000000000000000000000000000000000000000000000008152600401610613906112c3565b60405180910390fd5b600454841115610661576040517f08c379a00000000000000000000000000000000000000000000000000000000081526004016106589061109a565b60405180910390fd5b6001600085815260200190815260200160002060050160009054906101000a900460ff166106c4576040517f08c379a00000000000000000000000000000000000000000000000000000000081526004016106bb90611106565b60405180910390fd5b60016000858152602001908152602001600020600201836040516106e89190611162565b908152602001604051809103902060009054906101000a900460ff1615610744576040517f08c379a000000000000000000000000000000000000000000000000000000000815260040161073b9061132f565b60405180910390fd5b6001806000868152602001908152602001600020600201846040516107699190611162565b908152602001604051809103902060006101000a81548160ff0219169083151502179055506001600085815260200190815260200160002060040160008154809291906107b590610fe3565b9190505550837f01c6feb6a218293c8f849426e09abdca9d0d75e57e2255b6a7942add2bb3cb90846040516107ea919061102c565b60405180910390a250505050565b60026020528060005260406000206000915090508060000154908060010180546108219061137e565b80601f016020809104026020016040519081016040528092919081815260200182805461084d9061137e565b801561089a5780601f1061086f5761010080835404028352916020019161089a565b820191906000526020600020905b81548152906001019060200180831161087d57829003601f168201915b5050505050908060020154905083565b60016020528060005260406000206000915090508060000180546108cd9061137e565b80601f01602080910402602001604051908101604052809291908181526020018280546108f99061137e565b80156109465780601f1061091b57610100808354040283529160200191610946565b820191906000526020600020905b81548152906001019060200180831161092957829003601f168201915b5050505050908060030154908060040154908060050160009054906101000a900460ff16905084565b600560009054906101000a900473ffffffffffffffffffffffffffffffffffffffff1681565b60045481565b60035481565b600260005414156109e7576040517f08c379a00000000000000000000000000000000000000000000000000000000081526004016109de906113fc565b60405180910390fd5b6002600081905550565b6001600081905550565b828054610a079061137e565b90600052602060002090601f016020900481019282610a295760008555610a70565b82601f10610a4257805160ff1916838001178555610a70565b82800160010185558215610a70579182015b82811115610a6f578251825591602001919060010190610a54565b5b509050610a7d9190610a81565b5090565b5b80821115610a9a576000816000905550600101610a82565b5090565b6000604051905090565b600080fd5b600080fd5b600080fd5b600080fd5b6000601f19601f8301169050919050565b7f4e487b7100000000000000000000000000000000000000000000000000000000600052604160045260246000fd5b610b0582610abc565b810181811067ffffffffffffffff82111715610b2457610b23610acd565b5b80604052505050565b6000610b37610a9e565b9050610b438282610afc565b919050565b600067ffffffffffffffff821115610b6357610b62610acd565b5b610b6c82610abc565b9050602081019050919050565b82818337600083830152505050565b6000610b9b610b9684610b48565b610b2d565b905082815260208101848484011115610bb757610bb6610ab7565b5b610bc2848285610b79565b509392505050565b600082601f830112610bdf57610bde610ab2565b5b8135610bef848260208601610b88565b91505092915050565b600060208284031215610c0e57610c0d610aa8565b5b600082013567ffffffffffffffff811115610c2c57610c2b610aad565b5b610c3884828501610bca565b91505092915050565b6000819050919050565b610c5481610c41565b8114610c5f57600080fd5b50565b600081359050610c7181610c4b565b92915050565b60008060408385031215610c8e57610c8d610aa8565b5b6000610c9c85828601610c62565b925050602083013567ffffffffffffffff811115610cbd57610cbc610aad565b5b610cc985828601610bca565b9150509250929050565b600080600060608486031215610cec57610ceb610aa8565b5b6000610cfa86828701610c62565b935050602084013567ffffffffffffffff811115610d1b57610d1a610aad565b5b610d2786828701610bca565b9250506040610d3886828701610c62565b9150509250925092565b600060208284031215610d5857610d57610aa8565b5b6000610d6684828501610c62565b91505092915050565b610d7881610c41565b82525050565b600081519050919050565b600082825260208201905092915050565b60005b83811015610db8578082015181840152602081019050610d9d565b83811115610dc7576000848401525b50505050565b6000610dd882610d7e565b610de28185610d89565b9350610df2818560208601610d9a565b610dfb81610abc565b840191505092915050565b6000606082019050610e1b6000830186610d6f565b8181036020830152610e2d8185610dcd565b9050610e3c6040830184610d6f565b949350505050565b60008115159050919050565b610e5981610e44565b82525050565b60006080820190508181036000830152610e798187610dcd565b9050610e886020830186610d6f565b610e956040830185610d6f565b610ea26060830184610e50565b95945050505050565b600073ffffffffffffffffffffffffffffffffffffffff82169050919050565b6000610ed682610eab565b9050919050565b610ee681610ecb565b82525050565b6000602082019050610f016000830184610edd565b92915050565b6000602082019050610f1c6000830184610d6f565b92915050565b7f4f6e6c79206f776e65722063616e2063616c6c20746869732066756e6374696f60008201527f6e00000000000000000000000000000000000000000000000000000000000000602082015250565b6000610f7e602183610d89565b9150610f8982610f22565b604082019050919050565b60006020820190508181036000830152610fad81610f71565b9050919050565b7f4e487b7100000000000000000000000000000000000000000000000000000000600052601160045260246000fd5b6000610fee82610c41565b91507fffffffffffffffffffffffffffffffffffffffffffffffffffffffffffffffff82141561102157611020610fb4565b5b600182019050919050565b600060208201905081810360008301526110468184610dcd565b905092915050565b7f496e76616c696420656c656374696f6e20494400000000000000000000000000600082015250565b6000611084601383610d89565b915061108f8261104e565b602082019050919050565b600060208201905081810360008301526110b381611077565b9050919050565b7f456c656374696f6e206973206e6f742061637469766500000000000000000000600082015250565b60006110f0601683610d89565b91506110fb826110ba565b602082019050919050565b6000602082019050818103600083015261111f816110e3565b9050919050565b600081905092915050565b600061113c82610d7e565b6111468185611126565b9350611156818560208601610d9a565b80840191505092915050565b600061116e8284611131565b915081905092915050565b7f43616e646964617465206973206e6f7420726567697374657265640000000000600082015250565b60006111af601b83610d89565b91506111ba82611179565b602082019050919050565b600060208201905081810360008301526111de816111a2565b9050919050565b7f596f75206861766520616c726561647920766f74656400000000000000000000600082015250565b600061121b601683610d89565b9150611226826111e5565b602082019050919050565b6000602082019050818103600083015261124a8161120e565b9050919050565b7f596f75206d757374206265206174206c65617374203138207965617273206f6c60008201527f6400000000000000000000000000000000000000000000000000000000000000602082015250565b60006112ad602183610d89565b91506112b882611251565b604082019050919050565b600060208201905081810360008301526112dc816112a0565b9050919050565b7f43616e64696461746520616c7265616479207265676973746572656400000000600082015250565b6000611319601c83610d89565b9150611324826112e3565b602082019050919050565b600060208201905081810360008301526113488161130c565b9050919050565b7f4e487b7100000000000000000000000000000000000000000000000000000000600052602260045260246000fd5b6000600282049050600182168061139657607f821691505b602082108114156113aa576113a961134f565b5b50919050565b7f5265656e7472616e637947756172643a207265656e7472616e742063616c6c00600082015250565b60006113e6601f83610d89565b91506113f1826113b0565b602082019050919050565b60006020820190508181036000830152611415816113d9565b905091905056fea26469706673582212204a7359feeba8754518a54545d39b2671cc1d3ecec1f22aa294f56d310b9ed1a364736f6c63430008090033",
  "linkReferences": {},
  "deployedLinkReferences": {}
}